{
  "_format": "hh-sol-artifact-1",
  "contractName": "DeviceRegistry",
  "sourceName": "contracts/DeviceRegistry.sol",
  "abi": [
    {
      "anonymous": false,
      "inputs": [
        {
          "indexed": true,
          "internalType": "bytes32",
          "name": "deviceId",
          "type": "bytes32"
        },
        {
          "indexed": true,
          "internalType": "address",
          "name": "owner",
          "type": "address"
        },
        {
          "indexed": false,
          "internalType": "string",
          "name": "name",
          "type": "string"
        },
        {
          "indexed": false,
          "internalType": "uint256",
          "name": "timestamp",
          "type": "uint256"
        }
      ],
      "name": "DeviceRegistered",
      "type": "event"
    },
    {
      "inputs": [],
      "name": "getAllMyDevices",
      "outputs": [
        {
          "components": [
            {
              "internalType": "bytes32",
              "name": "deviceId",
              "type": "bytes32"
            },
            {
              "internalType": "string",
              "name": "name",
              "type": "string"
            },
            {
              "internalType": "address",
              "name": "owner",
              "type": "address"
            },
            {
              "internalType": "uint256",
              "name": "timestamp",
              "type": "uint256"
            }
          ],
          "internalType": "struct DeviceRegistry.Device[]",
          "name": "",
          "type": "tuple[]"
        }
      ],
      "stateMutability": "view",
      "type": "function"
    },
    {
      "inputs": [
        {
          "internalType": "bytes32",
          "name": "deviceId",
          "type": "bytes32"
        }
      ],
      "name": "getDeviceDetails",
      "outputs": [
        {
          "components": [
            {
              "internalType": "bytes32",
              "name": "deviceId",
              "type": "bytes32"
            },
            {
              "internalType": "string",
              "name": "name",
              "type": "string"
            },
            {
              "internalType": "address",
              "name": "owner",
              "type": "address"
            },
            {
              "internalType": "uint256",
              "name": "timestamp",
              "type": "uint256"
            }
          ],
          "internalType": "struct DeviceRegistry.Device",
          "name": "",
          "type": "tuple"
        }
      ],
      "stateMutability": "view",
      "type": "function"
    },
    {
      "inputs": [
        {
          "internalType": "address",
          "name": "owner",
          "type": "address"
        }
      ],
      "name": "getDevicesByOwner",
      "outputs": [
        {
          "internalType": "bytes32[]",
          "name": "",
          "type": "bytes32[]"
        }
      ],
      "stateMutability": "view",
      "type": "function"
    },
    {
      "inputs": [
        {
          "internalType": "string",
          "name": "deviceName",
          "type": "string"
        }
      ],
      "name": "registerDevice",
      "outputs": [
        {
          "internalType": "bytes32",
          "name": "deviceId",
          "type": "bytes32"
        }
      ],
      "stateMutability": "nonpayable",
      "type": "function"
    }
  ],
  "bytecode": "0x608060405234801561001057600080fd5b5061135c806100206000396000f3fe608060405234801561001057600080fd5b506004361061004c5760003560e01c8063095f141a1461005157806351b0e9871461006f578063cf4b985e1461009f578063f8ef515f146100cf575b600080fd5b6100596100ff565b6040516100669190610a66565b60405180910390f35b61008960048036038101906100849190610abe565b61035f565b6040516100969190610b9a565b60405180910390f35b6100b960048036038101906100b49190610c21565b6103f6565b6040516100c69190610c7d565b60405180910390f35b6100e960048036038101906100e49190610cc4565b610688565b6040516100f69190610d54565b60405180910390f35b60606000600160003373ffffffffffffffffffffffffffffffffffffffff1673ffffffffffffffffffffffffffffffffffffffff16815260200190815260200160002080548060200260200160405190810160405280929190818152602001828054801561018c57602002820191906000526020600020905b815481526020019060010190808311610178575b505050505090506000815167ffffffffffffffff8111156101b0576101af610d76565b5b6040519080825280602002602001820160405280156101e957816020015b6101d66107fd565b8152602001906001900390816101ce5790505b50905060005b82518110156103565760008084838151811061020e5761020d610da5565b5b602002602001015181526020019081526020016000206040518060800160405290816000820154815260200160018201805461024990610e03565b80601f016020809104026020016040519081016040528092919081815260200182805461027590610e03565b80156102c25780601f10610297576101008083540402835291602001916102c2565b820191906000526020600020905b8154815290600101906020018083116102a557829003601f168201915b505050505081526020016002820160009054906101000a900473ffffffffffffffffffffffffffffffffffffffff1673ffffffffffffffffffffffffffffffffffffffff1673ffffffffffffffffffffffffffffffffffffffff16815260200160038201548152505082828151811061033e5761033d610da5565b5b602002602001018190525080806001019150506101ef565b50809250505090565b6060600160008373ffffffffffffffffffffffffffffffffffffffff1673ffffffffffffffffffffffffffffffffffffffff1681526020019081526020016000208054806020026020016040519081016040528092919081815260200182805480156103ea57602002820191906000526020600020905b8154815260200190600101908083116103d6575b50505050509050919050565b600080838390501161043d576040517f08c379a000000000000000000000000000000000000000000000000000000000815260040161043490610e91565b60405180910390fd5b33838360405160200161045293929190610f38565b604051602081830303815290604052805190602001209050600080600083815260200190815260200160002060030154146104c2576040517f08c379a00000000000000000000000000000000000000000000000000000000081526004016104b990610fae565b60405180910390fd5b6000604051806080016040528083815260200185858080601f016020809104026020016040519081016040528093929190818152602001838380828437600081840152601f19601f8201169050808301925050505050505081526020013373ffffffffffffffffffffffffffffffffffffffff16815260200142815250905080600080848152602001908152602001600020600082015181600001556020820151816001019081610573919061117a565b5060408201518160020160006101000a81548173ffffffffffffffffffffffffffffffffffffffff021916908373ffffffffffffffffffffffffffffffffffffffff16021790555060608201518160030155905050600160003373ffffffffffffffffffffffffffffffffffffffff1673ffffffffffffffffffffffffffffffffffffffff1681526020019081526020016000208290806001815401808255809150506001900390600052602060002001600090919091909150553373ffffffffffffffffffffffffffffffffffffffff16827f3c127575a1a414a6c6a0e28ae10d8401f8b5322057b2dc4295d1e8fcf4d1074b86864260405161067993929190611288565b60405180910390a35092915050565b6106906107fd565b6000806000848152602001908152602001600020604051806080016040529081600082015481526020016001820180546106c990610e03565b80601f01602080910402602001604051908101604052809291908181526020018280546106f590610e03565b80156107425780601f1061071757610100808354040283529160200191610742565b820191906000526020600020905b81548152906001019060200180831161072557829003601f168201915b505050505081526020016002820160009054906101000a900473ffffffffffffffffffffffffffffffffffffffff1673ffffffffffffffffffffffffffffffffffffffff1673ffffffffffffffffffffffffffffffffffffffff168152602001600382015481525050905060008160600151036107f4576040517f08c379a00000000000000000000000000000000000000000000000000000000081526004016107eb90611306565b60405180910390fd5b80915050919050565b60405180608001604052806000801916815260200160608152602001600073ffffffffffffffffffffffffffffffffffffffff168152602001600081525090565b600081519050919050565b600082825260208201905092915050565b6000819050602082019050919050565b6000819050919050565b61087d8161086a565b82525050565b600081519050919050565b600082825260208201905092915050565b60005b838110156108bd5780820151818401526020810190506108a2565b60008484015250505050565b6000601f19601f8301169050919050565b60006108e582610883565b6108ef818561088e565b93506108ff81856020860161089f565b610908816108c9565b840191505092915050565b600073ffffffffffffffffffffffffffffffffffffffff82169050919050565b600061093e82610913565b9050919050565b61094e81610933565b82525050565b6000819050919050565b61096781610954565b82525050565b60006080830160008301516109856000860182610874565b506020830151848203602086015261099d82826108da565b91505060408301516109b26040860182610945565b5060608301516109c5606086018261095e565b508091505092915050565b60006109dc838361096d565b905092915050565b6000602082019050919050565b60006109fc8261083e565b610a068185610849565b935083602082028501610a188561085a565b8060005b85811015610a545784840389528151610a3585826109d0565b9450610a40836109e4565b925060208a01995050600181019050610a1c565b50829750879550505050505092915050565b60006020820190508181036000830152610a8081846109f1565b905092915050565b600080fd5b600080fd5b610a9b81610933565b8114610aa657600080fd5b50565b600081359050610ab881610a92565b92915050565b600060208284031215610ad457610ad3610a88565b5b6000610ae284828501610aa9565b91505092915050565b600081519050919050565b600082825260208201905092915050565b6000819050602082019050919050565b6000610b238383610874565b60208301905092915050565b6000602082019050919050565b6000610b4782610aeb565b610b518185610af6565b9350610b5c83610b07565b8060005b83811015610b8d578151610b748882610b17565b9750610b7f83610b2f565b925050600181019050610b60565b5085935050505092915050565b60006020820190508181036000830152610bb48184610b3c565b905092915050565b600080fd5b600080fd5b600080fd5b60008083601f840112610be157610be0610bbc565b5b8235905067ffffffffffffffff811115610bfe57610bfd610bc1565b5b602083019150836001820283011115610c1a57610c19610bc6565b5b9250929050565b60008060208385031215610c3857610c37610a88565b5b600083013567ffffffffffffffff811115610c5657610c55610a8d565b5b610c6285828601610bcb565b92509250509250929050565b610c778161086a565b82525050565b6000602082019050610c926000830184610c6e565b92915050565b610ca18161086a565b8114610cac57600080fd5b50565b600081359050610cbe81610c98565b92915050565b600060208284031215610cda57610cd9610a88565b5b6000610ce884828501610caf565b91505092915050565b6000608083016000830151610d096000860182610874565b5060208301518482036020860152610d2182826108da565b9150506040830151610d366040860182610945565b506060830151610d49606086018261095e565b508091505092915050565b60006020820190508181036000830152610d6e8184610cf1565b905092915050565b7f4e487b7100000000000000000000000000000000000000000000000000000000600052604160045260246000fd5b7f4e487b7100000000000000000000000000000000000000000000000000000000600052603260045260246000fd5b7f4e487b7100000000000000000000000000000000000000000000000000000000600052602260045260246000fd5b60006002820490506001821680610e1b57607f821691505b602082108103610e2e57610e2d610dd4565b5b50919050565b600082825260208201905092915050565b7f446576696365206e616d65207265717569726564000000000000000000000000600082015250565b6000610e7b601483610e34565b9150610e8682610e45565b602082019050919050565b60006020820190508181036000830152610eaa81610e6e565b9050919050565b60008160601b9050919050565b6000610ec982610eb1565b9050919050565b6000610edb82610ebe565b9050919050565b610ef3610eee82610933565b610ed0565b82525050565b600081905092915050565b82818337600083830152505050565b6000610f1f8385610ef9565b9350610f2c838584610f04565b82840190509392505050565b6000610f448286610ee2565b601482019150610f55828486610f13565b9150819050949350505050565b7f44657669636520616c7265616479206578697374730000000000000000000000600082015250565b6000610f98601583610e34565b9150610fa382610f62565b602082019050919050565b60006020820190508181036000830152610fc781610f8b565b9050919050565b60008190508160005260206000209050919050565b60006020601f8301049050919050565b600082821b905092915050565b6000600883026110307fffffffffffffffffffffffffffffffffffffffffffffffffffffffffffffffff82610ff3565b61103a8683610ff3565b95508019841693508086168417925050509392505050565b6000819050919050565b600061107761107261106d84610954565b611052565b610954565b9050919050565b6000819050919050565b6110918361105c565b6110a561109d8261107e565b848454611000565b825550505050565b600090565b6110ba6110ad565b6110c5818484611088565b505050565b5b818110156110e9576110de6000826110b2565b6001810190506110cb565b5050565b601f82111561112e576110ff81610fce565b61110884610fe3565b81016020851015611117578190505b61112b61112385610fe3565b8301826110ca565b50505b505050565b600082821c905092915050565b600061115160001984600802611133565b1980831691505092915050565b600061116a8383611140565b9150826002028217905092915050565b61118382610883565b67ffffffffffffffff81111561119c5761119b610d76565b5b6111a68254610e03565b6111b18282856110ed565b600060209050601f8311600181146111e457600084156111d2578287015190505b6111dc858261115e565b865550611244565b601f1984166111f286610fce565b60005b8281101561121a578489015182556001820191506020850194506020810190506111f5565b868310156112375784890151611233601f891682611140565b8355505b6001600288020188555050505b505050505050565b60006112588385610e34565b9350611265838584610f04565b61126e836108c9565b840190509392505050565b61128281610954565b82525050565b600060408201905081810360008301526112a381858761124c565b90506112b26020830184611279565b949350505050565b7f446576696365206e6f7420666f756e6400000000000000000000000000000000600082015250565b60006112f0601083610e34565b91506112fb826112ba565b602082019050919050565b6000602082019050818103600083015261131f816112e3565b905091905056fea264697066735822122082cc2315912aeec68f265cd963d873f9332622ca369c1a51035d1f274108381264736f6c63430008180033",
  "linkReferences": {},
  "deployedLinkReferences": {}
}